{
  "contractName": "Lottery",
  "abi": [
    {
      "inputs": [
        {
          "internalType": "uint64",
          "name": "_endTime",
          "type": "uint64"
        },
        {
          "internalType": "uint256",
          "name": "_fee",
          "type": "uint256"
        },
        {
          "internalType": "uint64",
          "name": "_s_subscriptionId",
          "type": "uint64"
        }
      ],
      "stateMutability": "nonpayable",
      "type": "constructor"
    },
    {
      "inputs": [
        {
          "internalType": "address",
          "name": "have",
          "type": "address"
        },
        {
          "internalType": "address",
          "name": "want",
          "type": "address"
        }
      ],
      "name": "OnlyCoordinatorCanFulfill",
      "type": "error"
    },
    {
      "anonymous": false,
      "inputs": [
        {
          "indexed": true,
          "internalType": "address",
          "name": "winner",
          "type": "address"
        }
      ],
      "name": "LotteryEnded",
      "type": "event"
    },
    {
      "anonymous": false,
      "inputs": [
        {
          "indexed": true,
          "internalType": "address",
          "name": "previousOwner",
          "type": "address"
        },
        {
          "indexed": true,
          "internalType": "address",
          "name": "newOwner",
          "type": "address"
        }
      ],
      "name": "OwnershipTransferred",
      "type": "event"
    },
    {
      "inputs": [],
      "name": "owner",
      "outputs": [
        {
          "internalType": "address",
          "name": "",
          "type": "address"
        }
      ],
      "stateMutability": "view",
      "type": "function",
      "constant": true
    },
    {
      "inputs": [
        {
          "internalType": "uint256",
          "name": "requestId",
          "type": "uint256"
        },
        {
          "internalType": "uint256[]",
          "name": "randomWords",
          "type": "uint256[]"
        }
      ],
      "name": "rawFulfillRandomWords",
      "outputs": [],
      "stateMutability": "nonpayable",
      "type": "function"
    },
    {
      "inputs": [],
      "name": "renounceOwnership",
      "outputs": [],
      "stateMutability": "nonpayable",
      "type": "function"
    },
    {
      "inputs": [
        {
          "internalType": "address",
          "name": "newOwner",
          "type": "address"
        }
      ],
      "name": "transferOwnership",
      "outputs": [],
      "stateMutability": "nonpayable",
      "type": "function"
    },
    {
      "inputs": [],
      "name": "getFee",
      "outputs": [
        {
          "internalType": "uint256",
          "name": "",
          "type": "uint256"
        }
      ],
      "stateMutability": "view",
      "type": "function",
      "constant": true
    },
    {
      "inputs": [],
      "name": "getEndTime",
      "outputs": [
        {
          "internalType": "uint64",
          "name": "",
          "type": "uint64"
        }
      ],
      "stateMutability": "view",
      "type": "function",
      "constant": true
    },
    {
      "inputs": [
        {
          "internalType": "uint256",
          "name": "_index",
          "type": "uint256"
        }
      ],
      "name": "getParticipant",
      "outputs": [
        {
          "internalType": "address",
          "name": "participant",
          "type": "address"
        }
      ],
      "stateMutability": "view",
      "type": "function",
      "constant": true
    },
    {
      "inputs": [
        {
          "internalType": "address",
          "name": "_participant",
          "type": "address"
        }
      ],
      "name": "getRegisteredParticipants",
      "outputs": [
        {
          "internalType": "bool",
          "name": "enteredLottery",
          "type": "bool"
        }
      ],
      "stateMutability": "view",
      "type": "function",
      "constant": true
    },
    {
      "inputs": [],
      "name": "enterLottery",
      "outputs": [
        {
          "internalType": "bool",
          "name": "",
          "type": "bool"
        }
      ],
      "stateMutability": "payable",
      "type": "function",
      "payable": true
    },
    {
      "inputs": [],
      "name": "withdrawal",
      "outputs": [],
      "stateMutability": "nonpayable",
      "type": "function"
    }
  ],
  "bytecode": "0x60a0604052736168499c0cffcacd319c818142124b7a15e857ab600360006101000a81548173ffffffffffffffffffffffffffffffffffffffff021916908373ffffffffffffffffffffffffffffffffffffffff1602179055507301be23585060835e02b77ef475b0cc51aa1e0709600460006101000a81548173ffffffffffffffffffffffffffffffffffffffff021916908373ffffffffffffffffffffffffffffffffffffffff1602179055507fd89b2bf150e3b9e13446986e571fb9cab24b13cea0a43ea20a6049a85cc807cc60001b600555620186a0600660006101000a81548163ffffffff021916908363ffffffff1602179055506003600660046101000a81548161ffff021916908361ffff16021790555060016006806101000a81548161ffff021916908361ffff1602179055503480156200014157600080fd5b5060405162001abd38038062001abd83398181016040528101906200016791906200046f565b600360009054906101000a900473ffffffffffffffffffffffffffffffffffffffff168073ffffffffffffffffffffffffffffffffffffffff1660808173ffffffffffffffffffffffffffffffffffffffff168152505050620001df620001d36200031e60201b60201c565b6200032660201b60201c565b600360009054906101000a900473ffffffffffffffffffffffffffffffffffffffff16600160006101000a81548173ffffffffffffffffffffffffffffffffffffffff021916908373ffffffffffffffffffffffffffffffffffffffff160217905550600460009054906101000a900473ffffffffffffffffffffffffffffffffffffffff16600260006101000a81548173ffffffffffffffffffffffffffffffffffffffff021916908373ffffffffffffffffffffffffffffffffffffffff1602179055508267ffffffffffffffff1642620002bd9190620004fa565b600660116101000a81548167ffffffffffffffff021916908367ffffffffffffffff16021790555081600c8190555080600660086101000a81548167ffffffffffffffff021916908367ffffffffffffffff16021790555050505062000557565b600033905090565b60008060009054906101000a900473ffffffffffffffffffffffffffffffffffffffff169050816000806101000a81548173ffffffffffffffffffffffffffffffffffffffff021916908373ffffffffffffffffffffffffffffffffffffffff1602179055508173ffffffffffffffffffffffffffffffffffffffff168173ffffffffffffffffffffffffffffffffffffffff167f8be0079c531659141344cd1fd0a4f28419497f9722a3daafe3b4186f6b6457e060405160405180910390a35050565b600080fd5b600067ffffffffffffffff82169050919050565b6200040e81620003ef565b81146200041a57600080fd5b50565b6000815190506200042e8162000403565b92915050565b6000819050919050565b620004498162000434565b81146200045557600080fd5b50565b60008151905062000469816200043e565b92915050565b6000806000606084860312156200048b576200048a620003ea565b5b60006200049b868287016200041d565b9350506020620004ae8682870162000458565b9250506040620004c1868287016200041d565b9150509250925092565b7f4e487b7100000000000000000000000000000000000000000000000000000000600052601160045260246000fd5b6000620005078262000434565b9150620005148362000434565b9250827fffffffffffffffffffffffffffffffffffffffffffffffffffffffffffffffff038211156200054c576200054b620004cb565b5b828201905092915050565b6080516115436200057a6000396000818161027901526102cd01526115436000f3fe6080604052600436106100915760003560e01c8063c1af578511610059578063c1af578514610169578063ced72f8714610187578063d4e93292146101b2578063d5481502146101c9578063f2fde38b1461020657610091565b80631b9db2ef146100965780631fe543e3146100d3578063439f5ac2146100fc578063715018a6146101275780638da5cb5b1461013e575b600080fd5b3480156100a257600080fd5b506100bd60048036038101906100b89190610c84565b61022f565b6040516100ca9190610cf2565b60405180910390f35b3480156100df57600080fd5b506100fa60048036038101906100f59190610e66565b610277565b005b34801561010857600080fd5b50610111610337565b60405161011e9190610ee5565b60405180910390f35b34801561013357600080fd5b5061013c610355565b005b34801561014a57600080fd5b506101536103dd565b6040516101609190610cf2565b60405180910390f35b610171610406565b60405161017e9190610f1b565b60405180910390f35b34801561019357600080fd5b5061019c610683565b6040516101a99190610f45565b60405180910390f35b3480156101be57600080fd5b506101c761068d565b005b3480156101d557600080fd5b506101f060048036038101906101eb9190610f8c565b6107e4565b6040516101fd9190610f1b565b60405180910390f35b34801561021257600080fd5b5061022d60048036038101906102289190610f8c565b61083a565b005b60006008828154811061024557610244610fb9565b5b9060005260206000200160009054906101000a900473ffffffffffffffffffffffffffffffffffffffff169050919050565b7f000000000000000000000000000000000000000000000000000000000000000073ffffffffffffffffffffffffffffffffffffffff163373ffffffffffffffffffffffffffffffffffffffff161461032957337f00000000000000000000000000000000000000000000000000000000000000006040517f1cf993f4000000000000000000000000000000000000000000000000000000008152600401610320929190610fe8565b60405180910390fd5b6103338282610931565b5050565b6000600660119054906101000a900467ffffffffffffffff16905090565b61035d610991565b73ffffffffffffffffffffffffffffffffffffffff1661037b6103dd565b73ffffffffffffffffffffffffffffffffffffffff16146103d1576040517f08c379a00000000000000000000000000000000000000000000000000000000081526004016103c89061106e565b60405180910390fd5b6103db6000610999565b565b60008060009054906101000a900473ffffffffffffffffffffffffffffffffffffffff16905090565b6000600c54341461044c576040517f08c379a000000000000000000000000000000000000000000000000000000000815260040161044390611100565b60405180910390fd5b600660109054906101000a900460ff161561049c576040517f08c379a00000000000000000000000000000000000000000000000000000000081526004016104939061116c565b60405180910390fd5b600960003373ffffffffffffffffffffffffffffffffffffffff1673ffffffffffffffffffffffffffffffffffffffff16815260200190815260200160002060009054906101000a900460ff1615610529576040517f08c379a0000000000000000000000000000000000000000000000000000000008152600401610520906111d8565b60405180910390fd5b600660119054906101000a900467ffffffffffffffff1667ffffffffffffffff16421015610615576008339080600181540180825580915050600190039060005260206000200160009091909190916101000a81548173ffffffffffffffffffffffffffffffffffffffff021916908373ffffffffffffffffffffffffffffffffffffffff1602179055506001600960003373ffffffffffffffffffffffffffffffffffffffff1673ffffffffffffffffffffffffffffffffffffffff16815260200190815260200160002060006101000a81548160ff02191690831515021790555060019050610680565b6001600660106101000a81548160ff0219169083151502179055503373ffffffffffffffffffffffffffffffffffffffff166108fc349081150290604051600060405180830381858888f19350505050158015610676573d6000803e3d6000fd5b5061067f610a5d565b5b90565b6000600c54905090565b600660109054906101000a900460ff166106dc576040517f08c379a00000000000000000000000000000000000000000000000000000000081526004016106d390611244565b60405180910390fd5b600760009054906101000a900473ffffffffffffffffffffffffffffffffffffffff1673ffffffffffffffffffffffffffffffffffffffff163373ffffffffffffffffffffffffffffffffffffffff16148061076a575061073b6103dd565b73ffffffffffffffffffffffffffffffffffffffff163373ffffffffffffffffffffffffffffffffffffffff16145b6107a9576040517f08c379a00000000000000000000000000000000000000000000000000000000081526004016107a0906112d6565b60405180910390fd5b600760009054906101000a900473ffffffffffffffffffffffffffffffffffffffff1673ffffffffffffffffffffffffffffffffffffffff16ff5b6000600960008373ffffffffffffffffffffffffffffffffffffffff1673ffffffffffffffffffffffffffffffffffffffff16815260200190815260200160002060009054906101000a900460ff169050919050565b610842610991565b73ffffffffffffffffffffffffffffffffffffffff166108606103dd565b73ffffffffffffffffffffffffffffffffffffffff16146108b6576040517f08c379a00000000000000000000000000000000000000000000000000000000081526004016108ad9061106e565b60405180910390fd5b600073ffffffffffffffffffffffffffffffffffffffff168173ffffffffffffffffffffffffffffffffffffffff1603610925576040517f08c379a000000000000000000000000000000000000000000000000000000000815260040161091c90611368565b60405180910390fd5b61092e81610999565b50565b8060008151811061094557610944610fb9565b5b6020026020010151600a8190555060006008805490508260008151811061096f5761096e610fb9565b5b602002602001015161098191906113b7565b905061098c81610b53565b505050565b600033905090565b60008060009054906101000a900473ffffffffffffffffffffffffffffffffffffffff169050816000806101000a81548173ffffffffffffffffffffffffffffffffffffffff021916908373ffffffffffffffffffffffffffffffffffffffff1602179055508173ffffffffffffffffffffffffffffffffffffffff168173ffffffffffffffffffffffffffffffffffffffff167f8be0079c531659141344cd1fd0a4f28419497f9722a3daafe3b4186f6b6457e060405160405180910390a35050565b600160009054906101000a900473ffffffffffffffffffffffffffffffffffffffff1673ffffffffffffffffffffffffffffffffffffffff16635d3b1d30600554600660089054906101000a900467ffffffffffffffff16600660049054906101000a900461ffff16600660009054906101000a900463ffffffff1660068054906101000a900461ffff166040518663ffffffff1660e01b8152600401610b08959493929190611478565b6020604051808303816000875af1158015610b27573d6000803e3d6000fd5b505050506040513d601f19601f82011682018060405250810190610b4b91906114e0565b600b81905550565b60088181548110610b6757610b66610fb9565b5b9060005260206000200160009054906101000a900473ffffffffffffffffffffffffffffffffffffffff16600760006101000a81548173ffffffffffffffffffffffffffffffffffffffff021916908373ffffffffffffffffffffffffffffffffffffffff160217905550600760009054906101000a900473ffffffffffffffffffffffffffffffffffffffff1673ffffffffffffffffffffffffffffffffffffffff167fd56c0851d0fe0f700bbb9abe1c0f08dc69c1f372f342446b87e0dc81ea6a258b60405160405180910390a250565b6000604051905090565b600080fd5b600080fd5b6000819050919050565b610c6181610c4e565b8114610c6c57600080fd5b50565b600081359050610c7e81610c58565b92915050565b600060208284031215610c9a57610c99610c44565b5b6000610ca884828501610c6f565b91505092915050565b600073ffffffffffffffffffffffffffffffffffffffff82169050919050565b6000610cdc82610cb1565b9050919050565b610cec81610cd1565b82525050565b6000602082019050610d076000830184610ce3565b92915050565b600080fd5b6000601f19601f8301169050919050565b7f4e487b7100000000000000000000000000000000000000000000000000000000600052604160045260246000fd5b610d5b82610d12565b810181811067ffffffffffffffff82111715610d7a57610d79610d23565b5b80604052505050565b6000610d8d610c3a565b9050610d998282610d52565b919050565b600067ffffffffffffffff821115610db957610db8610d23565b5b602082029050602081019050919050565b600080fd5b6000610de2610ddd84610d9e565b610d83565b90508083825260208201905060208402830185811115610e0557610e04610dca565b5b835b81811015610e2e5780610e1a8882610c6f565b845260208401935050602081019050610e07565b5050509392505050565b600082601f830112610e4d57610e4c610d0d565b5b8135610e5d848260208601610dcf565b91505092915050565b60008060408385031215610e7d57610e7c610c44565b5b6000610e8b85828601610c6f565b925050602083013567ffffffffffffffff811115610eac57610eab610c49565b5b610eb885828601610e38565b9150509250929050565b600067ffffffffffffffff82169050919050565b610edf81610ec2565b82525050565b6000602082019050610efa6000830184610ed6565b92915050565b60008115159050919050565b610f1581610f00565b82525050565b6000602082019050610f306000830184610f0c565b92915050565b610f3f81610c4e565b82525050565b6000602082019050610f5a6000830184610f36565b92915050565b610f6981610cd1565b8114610f7457600080fd5b50565b600081359050610f8681610f60565b92915050565b600060208284031215610fa257610fa1610c44565b5b6000610fb084828501610f77565b91505092915050565b7f4e487b7100000000000000000000000000000000000000000000000000000000600052603260045260246000fd5b6000604082019050610ffd6000830185610ce3565b61100a6020830184610ce3565b9392505050565b600082825260208201905092915050565b7f4f776e61626c653a2063616c6c6572206973206e6f7420746865206f776e6572600082015250565b6000611058602083611011565b915061106382611022565b602082019050919050565b600060208201905081810360008301526110878161104b565b9050919050565b7f506c656173652070726f766964652074686520636f727265637420666565207460008201527f6f2062652061626c6520746f20656e74657220746865206c6f74746572790000602082015250565b60006110ea603e83611011565b91506110f58261108e565b604082019050919050565b60006020820190508181036000830152611119816110dd565b9050919050565b7f546865206c6f74746572792068617320656e6465640000000000000000000000600082015250565b6000611156601583611011565b915061116182611120565b602082019050919050565b6000602082019050818103600083015261118581611149565b9050919050565b7f416c726561647920656e746572656420746865206c6f74746572790000000000600082015250565b60006111c2601b83611011565b91506111cd8261118c565b602082019050919050565b600060208201905081810360008301526111f1816111b5565b9050919050565b7f546865206c6f7474657279206973207374696c6c206163746976650000000000600082015250565b600061122e601b83611011565b9150611239826111f8565b602082019050919050565b6000602082019050818103600083015261125d81611221565b9050919050565b7f43616e206f6e6c792062652063616c6c6564206279207468652077696e6e657260008201527f20616e64206f776e6572206f6620746865206c6f747465727900000000000000602082015250565b60006112c0603983611011565b91506112cb82611264565b604082019050919050565b600060208201905081810360008301526112ef816112b3565b9050919050565b7f4f776e61626c653a206e6577206f776e657220697320746865207a65726f206160008201527f6464726573730000000000000000000000000000000000000000000000000000602082015250565b6000611352602683611011565b915061135d826112f6565b604082019050919050565b6000602082019050818103600083015261138181611345565b9050919050565b7f4e487b7100000000000000000000000000000000000000000000000000000000600052601260045260246000fd5b60006113c282610c4e565b91506113cd83610c4e565b9250826113dd576113dc611388565b5b828206905092915050565b6000819050919050565b6113fb816113e8565b82525050565b600061ffff82169050919050565b61141881611401565b82525050565b600063ffffffff82169050919050565b6114378161141e565b82525050565b6000819050919050565b600061146261145d61145884611401565b61143d565b61141e565b9050919050565b61147281611447565b82525050565b600060a08201905061148d60008301886113f2565b61149a6020830187610ed6565b6114a7604083018661140f565b6114b4606083018561142e565b6114c16080830184611469565b9695505050505050565b6000815190506114da81610c58565b92915050565b6000602082840312156114f6576114f5610c44565b5b6000611504848285016114cb565b9150509291505056fea264697066735822122002ba44591b3f87744e9aa7bf8832bbfce0f46abfd04b9d740ed59bbb73a6645e64736f6c634300080d0033",
  "immutableReferences": {
    "10": [
      {
        "length": 32,
        "start": 633
      },
      {
        "length": 32,
        "start": 717
      }
    ]
  },
  "source": "// SPDX-License-Identifier: UNLICENSED\r\n\r\npragma solidity ^0.8.13;\r\n\r\n/*\r\n    @title Lottery Contract\r\n    @author Chris Gonel\r\n    @notice CSBC2010 - Module 8\r\n*/\r\n\r\nimport \"@openzeppelin/contracts/access/Ownable.sol\";\r\nimport \"@chainlink/contracts/src/v0.8/VRFConsumerBaseV2.sol\";\r\nimport \"@chainlink/contracts/src/v0.8/interfaces/LinkTokenInterface.sol\";\r\nimport \"@chainlink/contracts/src/v0.8/interfaces/VRFCoordinatorV2Interface.sol\";\r\n\r\ncontract Lottery is VRFConsumerBaseV2, Ownable {\r\n    VRFCoordinatorV2Interface COORDINATOR;\r\n    LinkTokenInterface LINKTOKEN;\r\n\r\n    address vrfCoordinator = 0x6168499c0cFfCaCD319c818142124B7A15E857ab;\r\n    address link = 0x01BE23585060835E02B77ef475b0Cc51aA1e0709;\r\n    bytes32 keyHash = 0xd89b2bf150e3b9e13446986e571fb9cab24b13cea0a43ea20a6049a85cc807cc;\r\n    uint32 callbackGasLimit = 100000; \r\n    uint16 requestConfirmations = 3;\r\n    uint16 numWords =  1;\r\n    uint64 s_subscriptionId;\r\n    bool lotteryEnded;\r\n\r\n    uint64 endTime;\r\n    address winner;\r\n    address[] participants;\r\n    mapping(address => bool) registeredParticipants;\r\n\r\n\r\n    uint256 s_randomWord; \r\n    uint256 s_requestId;\r\n    uint256 fee;\r\n\r\n    /// @param  _endTime timestamp at which lottery ends\r\n    /// @param _fee cost to enter in the lottery in wei\r\n    /// @param _s_subscriptionId the id of the VRF subscription\r\n    constructor(uint64 _endTime, uint256 _fee, uint64 _s_subscriptionId) VRFConsumerBaseV2(vrfCoordinator){\r\n        COORDINATOR = VRFCoordinatorV2Interface(vrfCoordinator);\r\n        LINKTOKEN = LinkTokenInterface(link);\r\n        endTime = uint64(block.timestamp + _endTime);\r\n        fee = _fee;\r\n        s_subscriptionId = _s_subscriptionId;\r\n    } \r\n\r\n    /// @notice get fee of lottery entry\r\n    /// @return uint256 fee\r\n    function getFee() view external returns(uint256) {\r\n        return fee;\r\n    }\r\n\r\n    /// @notice get end time of lottery\r\n    /// @return uint64 end time of the lottery\r\n    function getEndTime() view external returns(uint64) {\r\n        return endTime;\r\n    }\r\n\r\n    /// @notice returns the address of the participant\r\n    /// @param _index index of the participant\r\n    /// @return participant address of participant\r\n    function getParticipant(uint256 _index) view external returns(address participant){\r\n        return participants[_index];\r\n    }\r\n\r\n    /// @notice returns if participant already registered\r\n    /// @param _participant address of the participant\r\n    /// @return enteredLottery bool if participant is registered\r\n    function getRegisteredParticipants(address _participant) view external returns(bool enteredLottery){\r\n        return registeredParticipants[_participant];\r\n    }\r\n\r\n    /// @notice to enter the draw, must provide the exact cost of the ticket\r\n    /// @notice can only enter the lottery once\r\n    function enterLottery() external payable returns(bool){\r\n        require(msg.value == fee, \"Please provide the correct fee to be able to enter the lottery\");\r\n        require(!lotteryEnded, \"The lottery has ended\");\r\n        require(!registeredParticipants[msg.sender], \"Already entered the lottery\");\r\n\r\n        // add msg.sender to participants if lottery is active\r\n        if (block.timestamp < endTime) {\r\n            participants.push(msg.sender);\r\n            registeredParticipants[msg.sender] = true;\r\n            return true;\r\n        } else {\r\n            // end lottery\r\n            lotteryEnded = true;\r\n            // send back money \r\n            payable(msg.sender).transfer(msg.value);\r\n            // call VRF\r\n            requestRandomWords();\r\n        }\r\n    }\r\n\r\n    /// @notice sets the winner\r\n    /// @param _winnerNumber the index of the winning participant\r\n    function setWinner(uint256 _winnerNumber) private {        \r\n        winner = participants[_winnerNumber];\r\n        emit LotteryEnded(winner);\r\n    }\r\n\r\n    /// @notice logs the winner when lottery has ended\r\n    /// @param winner the winner of the lottery\r\n    event LotteryEnded(address indexed winner);\r\n\r\n    /// @notice withdraw the lottery pool, only callable by the winner or the owner\r\n    function withdrawal() external {\r\n        require(lotteryEnded, \"The lottery is still active\");\r\n        require(msg.sender == winner || msg.sender == owner(), \"Can only be called by the winner and owner of the lottery\");\r\n\r\n        selfdestruct(payable(winner));\r\n    }\r\n \r\n    /// @dev calls Chainlink VRF \r\n    function requestRandomWords() internal {\r\n        s_requestId = COORDINATOR.requestRandomWords(\r\n            keyHash,\r\n            s_subscriptionId,\r\n            requestConfirmations,\r\n            callbackGasLimit,\r\n            numWords\r\n        );\r\n    }\r\n\r\n    /// @dev receives randomWord from VRF and derives the winning number\r\n    /// @param randomWords the received random value from Chainlink VRF\r\n    function fulfillRandomWords(uint256 /* requestId */, uint256[] memory randomWords) internal override {\r\n        s_randomWord = randomWords[0];\r\n        uint256 winnerNumber = randomWords[0] % participants.length;\r\n        setWinner(winnerNumber);\r\n    }\r\n\r\n}",
  "sourcePath": "C:\\Users\\gonel\\OneDrive\\Documents\\UYork\\CSBC2010 - Smart Contracts and Decentralized Applications\\CSBC2010\\assignments\\module_08\\contracts\\Lottery.sol",
  "compiler": {
    "name": "solc",
    "version": "0.8.13+commit.abaa5c0e.Emscripten.clang"
  },
  "schemaVersion": "3.4.6",
  "updatedAt": "2022-04-03T19:07:50.884Z",
  "networkType": "ethereum",
  "devdoc": {
    "events": {
      "LotteryEnded(address)": {
        "params": {
          "winner": "the winner of the lottery"
        }
      }
    },
    "kind": "dev",
    "methods": {
      "constructor": {
        "params": {
          "_endTime": "timestamp at which lottery ends",
          "_fee": "cost to enter in the lottery in wei",
          "_s_subscriptionId": "the id of the VRF subscription"
        }
      },
      "getEndTime()": {
        "returns": {
          "_0": "uint64 end time of the lottery"
        }
      },
      "getFee()": {
        "returns": {
          "_0": "uint256 fee"
        }
      },
      "getParticipant(uint256)": {
        "params": {
          "_index": "index of the participant"
        },
        "returns": {
          "participant": "address of participant"
        }
      },
      "getRegisteredParticipants(address)": {
        "params": {
          "_participant": "address of the participant"
        },
        "returns": {
          "enteredLottery": "bool if participant is registered"
        }
      },
      "owner()": {
        "details": "Returns the address of the current owner."
      },
      "renounceOwnership()": {
        "details": "Leaves the contract without owner. It will not be possible to call `onlyOwner` functions anymore. Can only be called by the current owner. NOTE: Renouncing ownership will leave the contract without an owner, thereby removing any functionality that is only available to the owner."
      },
      "transferOwnership(address)": {
        "details": "Transfers ownership of the contract to a new account (`newOwner`). Can only be called by the current owner."
      }
    },
    "version": 1
  },
  "userdoc": {
    "events": {
      "LotteryEnded(address)": {
        "notice": "logs the winner when lottery has ended"
      }
    },
    "kind": "user",
    "methods": {
      "enterLottery()": {
        "notice": "to enter the draw, must provide the exact cost of the ticketcan only enter the lottery once"
      },
      "getEndTime()": {
        "notice": "get end time of lottery"
      },
      "getFee()": {
        "notice": "get fee of lottery entry"
      },
      "getParticipant(uint256)": {
        "notice": "returns the address of the participant"
      },
      "getRegisteredParticipants(address)": {
        "notice": "returns if participant already registered"
      },
      "withdrawal()": {
        "notice": "withdraw the lottery pool, only callable by the winner or the owner"
      }
    },
    "version": 1
  }
}